{
  "contractName": "Counter",
  "abi": [
    {
      "inputs": [],
      "stateMutability": "nonpayable",
      "type": "constructor"
    },
    {
      "inputs": [],
      "name": "count",
      "outputs": [
        {
          "internalType": "uint256",
          "name": "",
          "type": "uint256"
        }
      ],
      "stateMutability": "view",
      "type": "function",
      "constant": true
    },
    {
      "inputs": [],
      "name": "get",
      "outputs": [
        {
          "internalType": "uint256",
          "name": "",
          "type": "uint256"
        }
      ],
      "stateMutability": "view",
      "type": "function",
      "constant": true
    },
    {
      "inputs": [],
      "name": "inc",
      "outputs": [],
      "stateMutability": "nonpayable",
      "type": "function"
    },
    {
      "inputs": [],
      "name": "dec",
      "outputs": [],
      "stateMutability": "nonpayable",
      "type": "function"
    }
  ],
  "bytecode": "0x608060405234801561001057600080fd5b50600080819055506102a8806100276000396000f3fe608060405234801561001057600080fd5b506004361061004c5760003560e01c806306661abd14610051578063371303c01461006f5780636d4ce63c14610079578063b3bcfa8214610097575b600080fd5b6100596100a1565b6040516100669190610143565b60405180910390f35b6100776100a7565b005b6100816100c2565b60405161008e9190610143565b60405180910390f35b61009f6100cb565b005b60005481565b60016000808282546100b9919061018d565b92505081905550565b60008054905090565b600080541161010f576040517f08c379a00000000000000000000000000000000000000000000000000000000081526004016101069061021e565b60405180910390fd5b6001600080828254610121919061023e565b92505081905550565b6000819050919050565b61013d8161012a565b82525050565b60006020820190506101586000830184610134565b92915050565b7f4e487b7100000000000000000000000000000000000000000000000000000000600052601160045260246000fd5b60006101988261012a565b91506101a38361012a565b92508282019050808211156101bb576101ba61015e565b5b92915050565b600082825260208201905092915050565b7f43616e206e6f742064656372656d656e74206675727468657200000000000000600082015250565b60006102086019836101c1565b9150610213826101d2565b602082019050919050565b60006020820190508181036000830152610237816101fb565b9050919050565b60006102498261012a565b91506102548361012a565b925082820390508181111561026c5761026b61015e565b5b9291505056fea264697066735822122013ce657789cfb3a20b13eb6b1168816e735458c8721ae90f84ca34e68353030a64736f6c63430008130033",
  "immutableReferences": {},
  "source": "// SPDX-License-Identifier: MIT \npragma solidity >=0.4.22 <0.9.0;\n\ncontract Counter {\n    uint public count;\n\n    constructor() {\n        count = 0;\n    }\n\n    function get() public view returns (uint) {\n        return count;\n    }\n\n    function inc() public {\n        count +=1;\n    }\n\n    function dec() public {\n        require(count > 0, \"Can not decrement further\");\n        count -=1;\n    }\n}",
  "sourcePath": "/home/expoilderk/Projetos/zencon/quickstart/contracts/Counter.sol",
  "compiler": {
    "name": "solc",
    "version": "0.8.19+commit.7dd6d404.Emscripten.clang"
  },
  "schemaVersion": "3.4.14",
  "updatedAt": "2023-07-27T00:32:49.870Z",
  "networkType": "ethereum",
  "devdoc": {
    "kind": "dev",
    "methods": {},
    "version": 1
  },
  "userdoc": {
    "kind": "user",
    "methods": {},
    "version": 1
  }
}